{
  "contractName": "TodoList",
  "abi": [
    {
      "inputs": [],
      "stateMutability": "nonpayable",
      "type": "constructor"
    },
    {
      "inputs": [
        {
          "internalType": "uint256",
          "name": "",
          "type": "uint256"
        }
      ],
      "name": "tasks",
      "outputs": [
        {
          "internalType": "string",
          "name": "description",
          "type": "string"
        },
        {
          "internalType": "bool",
          "name": "completed",
          "type": "bool"
        }
      ],
      "stateMutability": "view",
      "type": "function",
      "constant": true
    },
    {
      "inputs": [
        {
          "internalType": "string",
          "name": "_description",
          "type": "string"
        }
      ],
      "name": "addTask",
      "outputs": [],
      "stateMutability": "nonpayable",
      "type": "function"
    },
    {
      "inputs": [
        {
          "internalType": "uint256",
          "name": "_index",
          "type": "uint256"
        }
      ],
      "name": "removeTask",
      "outputs": [],
      "stateMutability": "nonpayable",
      "type": "function"
    },
    {
      "inputs": [
        {
          "internalType": "uint256",
          "name": "_index",
          "type": "uint256"
        }
      ],
      "name": "completeTask",
      "outputs": [],
      "stateMutability": "nonpayable",
      "type": "function"
    },
    {
      "inputs": [],
      "name": "getCompletedTasks",
      "outputs": [
        {
          "components": [
            {
              "internalType": "string",
              "name": "description",
              "type": "string"
            },
            {
              "internalType": "bool",
              "name": "completed",
              "type": "bool"
            }
          ],
          "internalType": "struct TodoList.Task[]",
          "name": "",
          "type": "tuple[]"
        }
      ],
      "stateMutability": "view",
      "type": "function",
      "constant": true
    },
    {
      "inputs": [],
      "name": "getPendingTasks",
      "outputs": [
        {
          "components": [
            {
              "internalType": "string",
              "name": "description",
              "type": "string"
            },
            {
              "internalType": "bool",
              "name": "completed",
              "type": "bool"
            }
          ],
          "internalType": "struct TodoList.Task[]",
          "name": "",
          "type": "tuple[]"
        }
      ],
      "stateMutability": "view",
      "type": "function",
      "constant": true
    },
    {
      "inputs": [],
      "name": "clearCompletedTasks",
      "outputs": [],
      "stateMutability": "nonpayable",
      "type": "function"
    },
    {
      "inputs": [],
      "name": "clearAllTasks",
      "outputs": [],
      "stateMutability": "nonpayable",
      "type": "function"
    }
  ],
  "bytecode": "0x608060405234801562000010575f80fd5b505f604051806040016040528060405180602001604052805f81525081526020015f1515815250908060018154018082558091505060019003905f5260205f2090600202015f909190919091505f820151815f019081620000729190620002fe565b506020820151816001015f6101000a81548160ff0219169083151502179055505050620003e2565b5f81519050919050565b7f4e487b71000000000000000000000000000000000000000000000000000000005f52604160045260245ffd5b7f4e487b71000000000000000000000000000000000000000000000000000000005f52602260045260245ffd5b5f60028204905060018216806200011657607f821691505b6020821081036200012c576200012b620000d1565b5b50919050565b5f819050815f5260205f209050919050565b5f6020601f8301049050919050565b5f82821b905092915050565b5f60088302620001907fffffffffffffffffffffffffffffffffffffffffffffffffffffffffffffffff8262000153565b6200019c868362000153565b95508019841693508086168417925050509392505050565b5f819050919050565b5f819050919050565b5f620001e6620001e0620001da84620001b4565b620001bd565b620001b4565b9050919050565b5f819050919050565b6200020183620001c6565b620002196200021082620001ed565b8484546200015f565b825550505050565b5f90565b6200022f62000221565b6200023c818484620001f6565b505050565b5b818110156200026357620002575f8262000225565b60018101905062000242565b5050565b601f821115620002b2576200027c8162000132565b620002878462000144565b8101602085101562000297578190505b620002af620002a68562000144565b83018262000241565b50505b505050565b5f82821c905092915050565b5f620002d45f1984600802620002b7565b1980831691505092915050565b5f620002ee8383620002c3565b9150826002028217905092915050565b62000309826200009a565b67ffffffffffffffff811115620003255762000324620000a4565b5b620003318254620000fe565b6200033e82828562000267565b5f60209050601f83116001811462000374575f84156200035f578287015190505b6200036b8582620002e1565b865550620003da565b601f198416620003848662000132565b5f5b82811015620003ad5784890151825560018201915060208501945060208101905062000386565b86831015620003cd5784890151620003c9601f891682620002c3565b8355505b6001600288020188555050505b505050505050565b61145080620003f05f395ff3fe608060405234801561000f575f80fd5b5060043610610086575f3560e01c80638d977672116100595780638d977672146100d8578063c308411714610109578063c35b903014610125578063e1e295581461014357610086565b8063273438f71461008a57806367238562146100945780636c830f4b146100b05780636e89fc62146100ce575b5f80fd5b61009261015f565b005b6100ae60048036038101906100a99190610bf4565b61029e565b005b6100b8610314565b6040516100c59190610dc4565b60405180910390f35b6100d6610533565b005b6100f260048036038101906100ed9190610e17565b610541565b604051610100929190610e99565b60405180910390f35b610123600480360381019061011e9190610e17565b610601565b005b61012d61073b565b60405161013a9190610dc4565b60405180910390f35b61015d60048036038101906101589190610e17565b610958565b005b5f5b5f8054905081101561029b575f81815481106101805761017f610ec7565b5b905f5260205f2090600202016001015f9054906101000a900460ff1615610288575f60015f805490506101b39190610f21565b815481106101c4576101c3610ec7565b5b905f5260205f2090600202015f82815481106101e3576101e2610ec7565b5b905f5260205f2090600202015f8201815f0190816102019190611163565b50600182015f9054906101000a900460ff16816001015f6101000a81548160ff0219169083151502179055509050505f80548061024157610240611248565b5b600190038181905f5260205f2090600202015f8082015f61026291906109db565b600182015f6101000a81549060ff021916905550509055808061028490611275565b9150505b80806102939061129c565b915050610161565b50565b5f60405180604001604052808381526020015f1515815250908060018154018082558091505060019003905f5260205f2090600202015f909190919091505f820151815f0190816102ef91906112e3565b506020820151816001015f6101000a81548160ff021916908315150217905550505050565b60605f805b5f8054905081101561037b575f818154811061033857610337610ec7565b5b905f5260205f2090600202016001015f9054906101000a900460ff16156103685781806103649061129c565b9250505b80806103739061129c565b915050610319565b505f8167ffffffffffffffff81111561039757610396610ad0565b5b6040519080825280602002602001820160405280156103d057816020015b6103bd610a18565b8152602001906001900390816103b55790505b5090505f805b5f80549050811015610529575f81815481106103f5576103f4610ec7565b5b905f5260205f2090600202016001015f9054906101000a900460ff1615610516575f818154811061042957610428610ec7565b5b905f5260205f2090600202016040518060400160405290815f8201805461044f90610f81565b80601f016020809104026020016040519081016040528092919081815260200182805461047b90610f81565b80156104c65780601f1061049d576101008083540402835291602001916104c6565b820191905f5260205f20905b8154815290600101906020018083116104a957829003601f168201915b50505050508152602001600182015f9054906101000a900460ff1615151515815250508383815181106104fc576104fb610ec7565b5b602002602001018190525081806105129061129c565b9250505b80806105219061129c565b9150506103d6565b5081935050505090565b5f8061053f9190610a33565b565b5f818154811061054f575f80fd5b905f5260205f2090600202015f91509050805f01805461056e90610f81565b80601f016020809104026020016040519081016040528092919081815260200182805461059a90610f81565b80156105e55780601f106105bc576101008083540402835291602001916105e5565b820191905f5260205f20905b8154815290600101906020018083116105c857829003601f168201915b505050505090806001015f9054906101000a900460ff16905082565b5f805490508110610647576040517f08c379a000000000000000000000000000000000000000000000000000000000815260040161063e906113fc565b60405180910390fd5b60015f805490506106589190610f21565b8110156106ef575f60015f805490506106719190610f21565b8154811061068257610681610ec7565b5b905f5260205f2090600202015f82815481106106a1576106a0610ec7565b5b905f5260205f2090600202015f8201815f0190816106bf9190611163565b50600182015f9054906101000a900460ff16816001015f6101000a81548160ff0219169083151502179055509050505b5f805480610700576106ff611248565b5b600190038181905f5260205f2090600202015f8082015f61072191906109db565b600182015f6101000a81549060ff02191690555050905550565b60605f805b5f805490508110156107a1575f818154811061075f5761075e610ec7565b5b905f5260205f2090600202016001015f9054906101000a900460ff1661078e57818061078a9061129c565b9250505b80806107999061129c565b915050610740565b505f8167ffffffffffffffff8111156107bd576107bc610ad0565b5b6040519080825280602002602001820160405280156107f657816020015b6107e3610a18565b8152602001906001900390816107db5790505b5090505f805b5f8054905081101561094e575f818154811061081b5761081a610ec7565b5b905f5260205f2090600202016001015f9054906101000a900460ff1661093b575f818154811061084e5761084d610ec7565b5b905f5260205f2090600202016040518060400160405290815f8201805461087490610f81565b80601f01602080910402602001604051908101604052809291908181526020018280546108a090610f81565b80156108eb5780601f106108c2576101008083540402835291602001916108eb565b820191905f5260205f20905b8154815290600101906020018083116108ce57829003601f168201915b50505050508152602001600182015f9054906101000a900460ff16151515158152505083838151811061092157610920610ec7565b5b602002602001018190525081806109379061129c565b9250505b80806109469061129c565b9150506107fc565b5081935050505090565b5f80549050811061099e576040517f08c379a0000000000000000000000000000000000000000000000000000000008152600401610995906113fc565b60405180910390fd5b60015f82815481106109b3576109b2610ec7565b5b905f5260205f2090600202016001015f6101000a81548160ff02191690831515021790555050565b5080546109e790610f81565b5f825580601f106109f85750610a15565b601f0160209004905f5260205f2090810190610a149190610a54565b5b50565b6040518060400160405280606081526020015f151581525090565b5080545f8255600202905f5260205f2090810190610a519190610a6f565b50565b5b80821115610a6b575f815f905550600101610a55565b5090565b5b80821115610aa3575f8082015f610a8791906109db565b600182015f6101000a81549060ff021916905550600201610a70565b5090565b5f604051905090565b5f80fd5b5f80fd5b5f80fd5b5f80fd5b5f601f19601f8301169050919050565b7f4e487b71000000000000000000000000000000000000000000000000000000005f52604160045260245ffd5b610b0682610ac0565b810181811067ffffffffffffffff82111715610b2557610b24610ad0565b5b80604052505050565b5f610b37610aa7565b9050610b438282610afd565b919050565b5f67ffffffffffffffff821115610b6257610b61610ad0565b5b610b6b82610ac0565b9050602081019050919050565b828183375f83830152505050565b5f610b98610b9384610b48565b610b2e565b905082815260208101848484011115610bb457610bb3610abc565b5b610bbf848285610b78565b509392505050565b5f82601f830112610bdb57610bda610ab8565b5b8135610beb848260208601610b86565b91505092915050565b5f60208284031215610c0957610c08610ab0565b5b5f82013567ffffffffffffffff811115610c2657610c25610ab4565b5b610c3284828501610bc7565b91505092915050565b5f81519050919050565b5f82825260208201905092915050565b5f819050602082019050919050565b5f81519050919050565b5f82825260208201905092915050565b5f5b83811015610c9b578082015181840152602081019050610c80565b5f8484015250505050565b5f610cb082610c64565b610cba8185610c6e565b9350610cca818560208601610c7e565b610cd381610ac0565b840191505092915050565b5f8115159050919050565b610cf281610cde565b82525050565b5f604083015f8301518482035f860152610d128282610ca6565b9150506020830151610d276020860182610ce9565b508091505092915050565b5f610d3d8383610cf8565b905092915050565b5f602082019050919050565b5f610d5b82610c3b565b610d658185610c45565b935083602082028501610d7785610c55565b805f5b85811015610db25784840389528151610d938582610d32565b9450610d9e83610d45565b925060208a01995050600181019050610d7a565b50829750879550505050505092915050565b5f6020820190508181035f830152610ddc8184610d51565b905092915050565b5f819050919050565b610df681610de4565b8114610e00575f80fd5b50565b5f81359050610e1181610ded565b92915050565b5f60208284031215610e2c57610e2b610ab0565b5b5f610e3984828501610e03565b91505092915050565b5f82825260208201905092915050565b5f610e5c82610c64565b610e668185610e42565b9350610e76818560208601610c7e565b610e7f81610ac0565b840191505092915050565b610e9381610cde565b82525050565b5f6040820190508181035f830152610eb18185610e52565b9050610ec06020830184610e8a565b9392505050565b7f4e487b71000000000000000000000000000000000000000000000000000000005f52603260045260245ffd5b7f4e487b71000000000000000000000000000000000000000000000000000000005f52601160045260245ffd5b5f610f2b82610de4565b9150610f3683610de4565b9250828203905081811115610f4e57610f4d610ef4565b5b92915050565b7f4e487b71000000000000000000000000000000000000000000000000000000005f52602260045260245ffd5b5f6002820490506001821680610f9857607f821691505b602082108103610fab57610faa610f54565b5b50919050565b5f81549050610fbf81610f81565b9050919050565b5f819050815f5260205f209050919050565b5f6020601f8301049050919050565b5f82821b905092915050565b5f600883026110227fffffffffffffffffffffffffffffffffffffffffffffffffffffffffffffffff82610fe7565b61102c8683610fe7565b95508019841693508086168417925050509392505050565b5f819050919050565b5f61106761106261105d84610de4565b611044565b610de4565b9050919050565b5f819050919050565b6110808361104d565b61109461108c8261106e565b848454610ff3565b825550505050565b5f90565b6110a861109c565b6110b3818484611077565b505050565b5b818110156110d6576110cb5f826110a0565b6001810190506110b9565b5050565b601f82111561111b576110ec81610fc6565b6110f584610fd8565b81016020851015611104578190505b61111861111085610fd8565b8301826110b8565b50505b505050565b5f82821c905092915050565b5f61113b5f1984600802611120565b1980831691505092915050565b5f611153838361112c565b9150826002028217905092915050565b818103611171575050611246565b61117a82610fb1565b67ffffffffffffffff81111561119357611192610ad0565b5b61119d8254610f81565b6111a88282856110da565b5f601f8311600181146111d5575f84156111c3578287015490505b6111cd8582611148565b86555061123f565b601f1984166111e387610fc6565b96506111ee86610fc6565b5f5b82811015611215578489015482556001820191506001850194506020810190506111f0565b86831015611232578489015461122e601f89168261112c565b8355505b6001600288020188555050505b5050505050505b565b7f4e487b71000000000000000000000000000000000000000000000000000000005f52603160045260245ffd5b5f61127f82610de4565b91505f820361129157611290610ef4565b5b600182039050919050565b5f6112a682610de4565b91507fffffffffffffffffffffffffffffffffffffffffffffffffffffffffffffffff82036112d8576112d7610ef4565b5b600182019050919050565b6112ec82610c64565b67ffffffffffffffff81111561130557611304610ad0565b5b61130f8254610f81565b61131a8282856110da565b5f60209050601f83116001811461134b575f8415611339578287015190505b6113438582611148565b8655506113aa565b601f19841661135986610fc6565b5f5b828110156113805784890151825560018201915060208501945060208101905061135b565b8683101561139d5784890151611399601f89168261112c565b8355505b6001600288020188555050505b505050505050565b7f5461736b20696e646578206f7574206f6620626f756e647300000000000000005f82015250565b5f6113e6601883610e42565b91506113f1826113b2565b602082019050919050565b5f6020820190508181035f830152611413816113da565b905091905056fea2646970667358221220b7cbfb36362d15578c7935e47b721e1ef11875675ee27e0cf63bc66c07d89d0864736f6c63430008150033",
  "immutableReferences": {},
  "source": "// SPDX-License-Identifier: MIT\r\npragma solidity ^0.8.0;\r\n\r\ncontract TodoList {\r\n    struct Task {\r\n        string description;\r\n        bool completed;\r\n    }\r\n    \r\n    Task[] public tasks;\r\n    \r\n    constructor() {\r\n        // Initializing the contract with an empty task to avoid potential deployment issues\r\n        tasks.push(Task(\"\", false));\r\n    }\r\n\r\n    // Adds a new task to the to-do list\r\n    function addTask(string memory _description) public {\r\n        tasks.push(Task(_description, false));\r\n    }\r\n\r\n    // Removes a specified task from the to-do list\r\n    function removeTask(uint256 _index) public {\r\n        require(_index < tasks.length, \"Task index out of bounds\");\r\n        if (_index < tasks.length - 1) {\r\n            tasks[_index] = tasks[tasks.length - 1];\r\n        }\r\n        tasks.pop();\r\n    }\r\n\r\n    // Marks a task as completed\r\n    function completeTask(uint256 _index) public {\r\n        require(_index < tasks.length, \"Task index out of bounds\");\r\n        tasks[_index].completed = true;\r\n    }\r\n\r\n    // Retrieves a list of completed tasks\r\n    function getCompletedTasks() public view returns (Task[] memory) {\r\n        uint256 count = 0;\r\n        for (uint256 i = 0; i < tasks.length; i++) {\r\n            if (tasks[i].completed) {\r\n                count++;\r\n            }\r\n        }\r\n        \r\n        Task[] memory completedTasks = new Task[](count);\r\n        uint256 index = 0;\r\n        for (uint256 i = 0; i < tasks.length; i++) {\r\n            if (tasks[i].completed) {\r\n                completedTasks[index] = tasks[i];\r\n                index++;\r\n            }\r\n        }\r\n        return completedTasks;\r\n    }\r\n\r\n    // Retrieves a list of pending (incomplete) tasks\r\n    function getPendingTasks() public view returns (Task[] memory) {\r\n        uint256 count = 0;\r\n        for (uint256 i = 0; i < tasks.length; i++) {\r\n            if (!tasks[i].completed) {\r\n                count++;\r\n            }\r\n        }\r\n        \r\n        Task[] memory pendingTasks = new Task[](count);\r\n        uint256 index = 0;\r\n        for (uint256 i = 0; i < tasks.length; i++) {\r\n            if (!tasks[i].completed) {\r\n                pendingTasks[index] = tasks[i];\r\n                index++;\r\n            }\r\n        }\r\n        return pendingTasks;\r\n    }\r\n\r\n    // Removes all completed tasks from the list\r\n    function clearCompletedTasks() public {\r\n        for (uint256 i = 0; i < tasks.length; i++) {\r\n            if (tasks[i].completed) {\r\n                tasks[i] = tasks[tasks.length - 1];\r\n                tasks.pop();\r\n                i--;\r\n            }\r\n        }\r\n    }\r\n\r\n    // Clears the entire to-do list\r\n    function clearAllTasks() public {\r\n        delete tasks;\r\n    }\r\n}",
  "sourcePath": "C:\\Users\\Lenovo\\OneDrive\\Documents\\GitHub\\ToDos\\contracts\\TodoList.sol",
  "compiler": {
    "name": "solc",
    "version": "0.8.21+commit.d9974bed.Emscripten.clang"
  },
  "schemaVersion": "3.4.16",
  "updatedAt": "2023-12-09T00:55:13.861Z",
  "networkType": "ethereum",
  "devdoc": {
    "kind": "dev",
    "methods": {},
    "version": 1
  },
  "userdoc": {
    "kind": "user",
    "methods": {},
    "version": 1
  }
}