{
  "contractName": "TodoList",
  "abi": [
    {
      "inputs": [
        {
          "internalType": "uint256",
          "name": "",
          "type": "uint256"
        }
      ],
      "name": "tasks",
      "outputs": [
        {
          "internalType": "string",
          "name": "description",
          "type": "string"
        },
        {
          "internalType": "bool",
          "name": "completed",
          "type": "bool"
        }
      ],
      "stateMutability": "view",
      "type": "function"
    },
    {
      "inputs": [
        {
          "internalType": "string",
          "name": "_description",
          "type": "string"
        }
      ],
      "name": "addTask",
      "outputs": [],
      "stateMutability": "nonpayable",
      "type": "function"
    },
    {
      "inputs": [
        {
          "internalType": "uint256",
          "name": "_index",
          "type": "uint256"
        }
      ],
      "name": "removeTask",
      "outputs": [],
      "stateMutability": "nonpayable",
      "type": "function"
    },
    {
      "inputs": [
        {
          "internalType": "uint256",
          "name": "_index",
          "type": "uint256"
        }
      ],
      "name": "completeTask",
      "outputs": [],
      "stateMutability": "nonpayable",
      "type": "function"
    },
    {
      "inputs": [],
      "name": "getCompletedTasks",
      "outputs": [
        {
          "components": [
            {
              "internalType": "string",
              "name": "description",
              "type": "string"
            },
            {
              "internalType": "bool",
              "name": "completed",
              "type": "bool"
            }
          ],
          "internalType": "struct TodoList.Task[]",
          "name": "",
          "type": "tuple[]"
        }
      ],
      "stateMutability": "view",
      "type": "function"
    },
    {
      "inputs": [],
      "name": "getPendingTasks",
      "outputs": [
        {
          "components": [
            {
              "internalType": "string",
              "name": "description",
              "type": "string"
            },
            {
              "internalType": "bool",
              "name": "completed",
              "type": "bool"
            }
          ],
          "internalType": "struct TodoList.Task[]",
          "name": "",
          "type": "tuple[]"
        }
      ],
      "stateMutability": "view",
      "type": "function"
    },
    {
      "inputs": [],
      "name": "clearCompletedTasks",
      "outputs": [],
      "stateMutability": "nonpayable",
      "type": "function"
    },
    {
      "inputs": [],
      "name": "clearAllTasks",
      "outputs": [],
      "stateMutability": "nonpayable",
      "type": "function"
    }
  ],
  "bytecode": "0x608060405234801561000f575f80fd5b506114378061001d5f395ff3fe608060405234801561000f575f80fd5b5060043610610086575f3560e01c80638d977672116100595780638d977672146100d8578063c308411714610109578063c35b903014610125578063e1e295581461014357610086565b8063273438f71461008a57806367238562146100945780636c830f4b146100b05780636e89fc62146100ce575b5f80fd5b61009261015f565b005b6100ae60048036038101906100a99190610bdb565b61029e565b005b6100b8610314565b6040516100c59190610dab565b60405180910390f35b6100d6610533565b005b6100f260048036038101906100ed9190610dfe565b610541565b604051610100929190610e80565b60405180910390f35b610123600480360381019061011e9190610dfe565b610601565b005b61012d610722565b60405161013a9190610dab565b60405180910390f35b61015d60048036038101906101589190610dfe565b61093f565b005b5f5b5f8054905081101561029b575f81815481106101805761017f610eae565b5b905f5260205f2090600202016001015f9054906101000a900460ff1615610288575f60015f805490506101b39190610f08565b815481106101c4576101c3610eae565b5b905f5260205f2090600202015f82815481106101e3576101e2610eae565b5b905f5260205f2090600202015f8201815f019081610201919061114a565b50600182015f9054906101000a900460ff16816001015f6101000a81548160ff0219169083151502179055509050505f8054806102415761024061122f565b5b600190038181905f5260205f2090600202015f8082015f61026291906109c2565b600182015f6101000a81549060ff02191690555050905580806102849061125c565b9150505b808061029390611283565b915050610161565b50565b5f60405180604001604052808381526020015f1515815250908060018154018082558091505060019003905f5260205f2090600202015f909190919091505f820151815f0190816102ef91906112ca565b506020820151816001015f6101000a81548160ff021916908315150217905550505050565b60605f805b5f8054905081101561037b575f818154811061033857610337610eae565b5b905f5260205f2090600202016001015f9054906101000a900460ff161561036857818061036490611283565b9250505b808061037390611283565b915050610319565b505f8167ffffffffffffffff81111561039757610396610ab7565b5b6040519080825280602002602001820160405280156103d057816020015b6103bd6109ff565b8152602001906001900390816103b55790505b5090505f805b5f80549050811015610529575f81815481106103f5576103f4610eae565b5b905f5260205f2090600202016001015f9054906101000a900460ff1615610516575f818154811061042957610428610eae565b5b905f5260205f2090600202016040518060400160405290815f8201805461044f90610f68565b80601f016020809104026020016040519081016040528092919081815260200182805461047b90610f68565b80156104c65780601f1061049d576101008083540402835291602001916104c6565b820191905f5260205f20905b8154815290600101906020018083116104a957829003601f168201915b50505050508152602001600182015f9054906101000a900460ff1615151515815250508383815181106104fc576104fb610eae565b5b6020026020010181905250818061051290611283565b9250505b808061052190611283565b9150506103d6565b5081935050505090565b5f8061053f9190610a1a565b565b5f818154811061054f575f80fd5b905f5260205f2090600202015f91509050805f01805461056e90610f68565b80601f016020809104026020016040519081016040528092919081815260200182805461059a90610f68565b80156105e55780601f106105bc576101008083540402835291602001916105e5565b820191905f5260205f20905b8154815290600101906020018083116105c857829003601f168201915b505050505090806001015f9054906101000a900460ff16905082565b5f805490508110610647576040517f08c379a000000000000000000000000000000000000000000000000000000000815260040161063e906113e3565b60405180910390fd5b5f60015f805490506106599190610f08565b8154811061066a57610669610eae565b5b905f5260205f2090600202015f828154811061068957610688610eae565b5b905f5260205f2090600202015f8201815f0190816106a7919061114a565b50600182015f9054906101000a900460ff16816001015f6101000a81548160ff0219169083151502179055509050505f8054806106e7576106e661122f565b5b600190038181905f5260205f2090600202015f8082015f61070891906109c2565b600182015f6101000a81549060ff02191690555050905550565b60605f805b5f80549050811015610788575f818154811061074657610745610eae565b5b905f5260205f2090600202016001015f9054906101000a900460ff1661077557818061077190611283565b9250505b808061078090611283565b915050610727565b505f8167ffffffffffffffff8111156107a4576107a3610ab7565b5b6040519080825280602002602001820160405280156107dd57816020015b6107ca6109ff565b8152602001906001900390816107c25790505b5090505f805b5f80549050811015610935575f818154811061080257610801610eae565b5b905f5260205f2090600202016001015f9054906101000a900460ff16610922575f818154811061083557610834610eae565b5b905f5260205f2090600202016040518060400160405290815f8201805461085b90610f68565b80601f016020809104026020016040519081016040528092919081815260200182805461088790610f68565b80156108d25780601f106108a9576101008083540402835291602001916108d2565b820191905f5260205f20905b8154815290600101906020018083116108b557829003601f168201915b50505050508152602001600182015f9054906101000a900460ff16151515158152505083838151811061090857610907610eae565b5b6020026020010181905250818061091e90611283565b9250505b808061092d90611283565b9150506107e3565b5081935050505090565b5f805490508110610985576040517f08c379a000000000000000000000000000000000000000000000000000000000815260040161097c906113e3565b60405180910390fd5b60015f828154811061099a57610999610eae565b5b905f5260205f2090600202016001015f6101000a81548160ff02191690831515021790555050565b5080546109ce90610f68565b5f825580601f106109df57506109fc565b601f0160209004905f5260205f20908101906109fb9190610a3b565b5b50565b6040518060400160405280606081526020015f151581525090565b5080545f8255600202905f5260205f2090810190610a389190610a56565b50565b5b80821115610a52575f815f905550600101610a3c565b5090565b5b80821115610a8a575f8082015f610a6e91906109c2565b600182015f6101000a81549060ff021916905550600201610a57565b5090565b5f604051905090565b5f80fd5b5f80fd5b5f80fd5b5f80fd5b5f601f19601f8301169050919050565b7f4e487b71000000000000000000000000000000000000000000000000000000005f52604160045260245ffd5b610aed82610aa7565b810181811067ffffffffffffffff82111715610b0c57610b0b610ab7565b5b80604052505050565b5f610b1e610a8e565b9050610b2a8282610ae4565b919050565b5f67ffffffffffffffff821115610b4957610b48610ab7565b5b610b5282610aa7565b9050602081019050919050565b828183375f83830152505050565b5f610b7f610b7a84610b2f565b610b15565b905082815260208101848484011115610b9b57610b9a610aa3565b5b610ba6848285610b5f565b509392505050565b5f82601f830112610bc257610bc1610a9f565b5b8135610bd2848260208601610b6d565b91505092915050565b5f60208284031215610bf057610bef610a97565b5b5f82013567ffffffffffffffff811115610c0d57610c0c610a9b565b5b610c1984828501610bae565b91505092915050565b5f81519050919050565b5f82825260208201905092915050565b5f819050602082019050919050565b5f81519050919050565b5f82825260208201905092915050565b5f5b83811015610c82578082015181840152602081019050610c67565b5f8484015250505050565b5f610c9782610c4b565b610ca18185610c55565b9350610cb1818560208601610c65565b610cba81610aa7565b840191505092915050565b5f8115159050919050565b610cd981610cc5565b82525050565b5f604083015f8301518482035f860152610cf98282610c8d565b9150506020830151610d0e6020860182610cd0565b508091505092915050565b5f610d248383610cdf565b905092915050565b5f602082019050919050565b5f610d4282610c22565b610d4c8185610c2c565b935083602082028501610d5e85610c3c565b805f5b85811015610d995784840389528151610d7a8582610d19565b9450610d8583610d2c565b925060208a01995050600181019050610d61565b50829750879550505050505092915050565b5f6020820190508181035f830152610dc38184610d38565b905092915050565b5f819050919050565b610ddd81610dcb565b8114610de7575f80fd5b50565b5f81359050610df881610dd4565b92915050565b5f60208284031215610e1357610e12610a97565b5b5f610e2084828501610dea565b91505092915050565b5f82825260208201905092915050565b5f610e4382610c4b565b610e4d8185610e29565b9350610e5d818560208601610c65565b610e6681610aa7565b840191505092915050565b610e7a81610cc5565b82525050565b5f6040820190508181035f830152610e988185610e39565b9050610ea76020830184610e71565b9392505050565b7f4e487b71000000000000000000000000000000000000000000000000000000005f52603260045260245ffd5b7f4e487b71000000000000000000000000000000000000000000000000000000005f52601160045260245ffd5b5f610f1282610dcb565b9150610f1d83610dcb565b9250828203905081811115610f3557610f34610edb565b5b92915050565b7f4e487b71000000000000000000000000000000000000000000000000000000005f52602260045260245ffd5b5f6002820490506001821680610f7f57607f821691505b602082108103610f9257610f91610f3b565b5b50919050565b5f81549050610fa681610f68565b9050919050565b5f819050815f5260205f209050919050565b5f6020601f8301049050919050565b5f82821b905092915050565b5f600883026110097fffffffffffffffffffffffffffffffffffffffffffffffffffffffffffffffff82610fce565b6110138683610fce565b95508019841693508086168417925050509392505050565b5f819050919050565b5f61104e61104961104484610dcb565b61102b565b610dcb565b9050919050565b5f819050919050565b61106783611034565b61107b61107382611055565b848454610fda565b825550505050565b5f90565b61108f611083565b61109a81848461105e565b505050565b5b818110156110bd576110b25f82611087565b6001810190506110a0565b5050565b601f821115611102576110d381610fad565b6110dc84610fbf565b810160208510156110eb578190505b6110ff6110f785610fbf565b83018261109f565b50505b505050565b5f82821c905092915050565b5f6111225f1984600802611107565b1980831691505092915050565b5f61113a8383611113565b9150826002028217905092915050565b81810361115857505061122d565b61116182610f98565b67ffffffffffffffff81111561117a57611179610ab7565b5b6111848254610f68565b61118f8282856110c1565b5f601f8311600181146111bc575f84156111aa578287015490505b6111b4858261112f565b865550611226565b601f1984166111ca87610fad565b96506111d586610fad565b5f5b828110156111fc578489015482556001820191506001850194506020810190506111d7565b868310156112195784890154611215601f891682611113565b8355505b6001600288020188555050505b5050505050505b565b7f4e487b71000000000000000000000000000000000000000000000000000000005f52603160045260245ffd5b5f61126682610dcb565b91505f820361127857611277610edb565b5b600182039050919050565b5f61128d82610dcb565b91507fffffffffffffffffffffffffffffffffffffffffffffffffffffffffffffffff82036112bf576112be610edb565b5b600182019050919050565b6112d382610c4b565b67ffffffffffffffff8111156112ec576112eb610ab7565b5b6112f68254610f68565b6113018282856110c1565b5f60209050601f831160018114611332575f8415611320578287015190505b61132a858261112f565b865550611391565b601f19841661134086610fad565b5f5b8281101561136757848901518255600182019150602085019450602081019050611342565b868310156113845784890151611380601f891682611113565b8355505b6001600288020188555050505b505050505050565b7f5461736b20696e646578206f7574206f6620626f756e647300000000000000005f82015250565b5f6113cd601883610e29565b91506113d882611399565b602082019050919050565b5f6020820190508181035f8301526113fa816113c1565b905091905056fea26469706673582212206b7513d23b199bbce45e006759c9445286181d2935a918f17bb5890ed51085c464736f6c63430008150033",
  "immutableReferences": {},
  "source": "// SPDX-License-Identifier: MIT\r\npragma solidity ^0.8.0;\r\n\r\ncontract TodoList {\r\n    struct Task {\r\n        string description;\r\n        bool completed;\r\n    }\r\n    \r\n    Task[] public tasks;\r\n\r\n    // Adds a new task to the to-do list\r\n    function addTask(string memory _description) public {\r\n        tasks.push(Task(_description, false));\r\n    }\r\n\r\n    // Removes a specified task from the to-do list\r\n    function removeTask(uint256 _index) public {\r\n        require(_index < tasks.length, \"Task index out of bounds\");\r\n        tasks[_index] = tasks[tasks.length - 1];\r\n        tasks.pop();\r\n    }\r\n\r\n    // Marks a task as completed\r\n    function completeTask(uint256 _index) public {\r\n        require(_index < tasks.length, \"Task index out of bounds\");\r\n        tasks[_index].completed = true;\r\n    }\r\n\r\n    // Retrieves a list of completed tasks\r\n    function getCompletedTasks() public view returns (Task[] memory) {\r\n        uint256 count = 0;\r\n        for (uint256 i = 0; i < tasks.length; i++) {\r\n            if (tasks[i].completed) {\r\n                count++;\r\n            }\r\n        }\r\n        \r\n        Task[] memory completedTasks = new Task[](count);\r\n        uint256 index = 0;\r\n        for (uint256 i = 0; i < tasks.length; i++) {\r\n            if (tasks[i].completed) {\r\n                completedTasks[index] = tasks[i];\r\n                index++;\r\n            }\r\n        }\r\n        return completedTasks;\r\n    }\r\n\r\n    // Retrieves a list of pending (incomplete) tasks\r\n    function getPendingTasks() public view returns (Task[] memory) {\r\n        uint256 count = 0;\r\n        for (uint256 i = 0; i < tasks.length; i++) {\r\n            if (!tasks[i].completed) {\r\n                count++;\r\n            }\r\n        }\r\n        \r\n        Task[] memory pendingTasks = new Task[](count);\r\n        uint256 index = 0;\r\n        for (uint256 i = 0; i < tasks.length; i++) {\r\n            if (!tasks[i].completed) {\r\n                pendingTasks[index] = tasks[i];\r\n                index++;\r\n            }\r\n        }\r\n        return pendingTasks;\r\n    }\r\n\r\n    // Removes all completed tasks from the list\r\n    function clearCompletedTasks() public {\r\n        for (uint256 i = 0; i < tasks.length; i++) {\r\n            if (tasks[i].completed) {\r\n                tasks[i] = tasks[tasks.length - 1];\r\n                tasks.pop();\r\n                i--;\r\n            }\r\n        }\r\n    }\r\n\r\n    // Clears the entire to-do list\r\n    function clearAllTasks() public {\r\n        delete tasks;\r\n    }\r\n}",
  "sourcePath": "C:\\Users\\Lenovo\\OneDrive\\Documents\\GitHub\\ToDos\\contracts\\TodoList.sol",
  "compiler": {
    "name": "solc",
    "version": "0.8.21+commit.d9974bed.Emscripten.clang"
  },
  "schemaVersion": "3.4.16",
  "updatedAt": "2023-12-08T17:46:53.962Z",
  "devdoc": {
    "kind": "dev",
    "methods": {},
    "version": 1
  },
  "userdoc": {
    "kind": "user",
    "methods": {},
    "version": 1
  }
}